{"address":"0xF283ED5c28774C35759BCb062d22a406635cedA7","bytecode":"0x608060405260016007553480156200001657600080fd5b50604051620034073803806200340783398181016040528101906200003c919062000b22565b83838160009080519060200190620000569291906200069e565b5080600190805190602001906200006f9291906200069e565b50505060005b8151811015620000e457620000ce83828151811062000099576200009862000c10565b5b6020026020010151600754848481518110620000ba57620000b962000c10565b5b6020026020010151620000ef60201b60201c565b8080620000db9062000c78565b91505062000075565b50505050506200110f565b6200010183836200013460201b60201c565b62000115600754826200015a60201b60201c565b600760008154809291906200012a9062000c78565b9190505550505050565b62000156828260405180602001604052806000815250620001db60201b60201c565b5050565b6200016b826200024960201b60201c565b620001ad576040517f08c379a0000000000000000000000000000000000000000000000000000000008152600401620001a49062000d4d565b60405180910390fd5b80600660008481526020019081526020016000209080519060200190620001d69291906200069e565b505050565b620001ed8383620002b560201b60201c565b620002026000848484620004af60201b60201c565b62000244576040517f08c379a00000000000000000000000000000000000000000000000000000000081526004016200023b9062000de5565b60405180910390fd5b505050565b60008073ffffffffffffffffffffffffffffffffffffffff166002600084815260200190815260200160002060009054906101000a900473ffffffffffffffffffffffffffffffffffffffff1673ffffffffffffffffffffffffffffffffffffffff1614159050919050565b600073ffffffffffffffffffffffffffffffffffffffff168273ffffffffffffffffffffffffffffffffffffffff16141562000328576040517f08c379a00000000000000000000000000000000000000000000000000000000081526004016200031f9062000e57565b60405180910390fd5b62000339816200024960201b60201c565b156200037c576040517f08c379a0000000000000000000000000000000000000000000000000000000008152600401620003739062000ec9565b60405180910390fd5b62000390600083836200066960201b60201c565b6001600360008473ffffffffffffffffffffffffffffffffffffffff1673ffffffffffffffffffffffffffffffffffffffff1681526020019081526020016000206000828254620003e2919062000eeb565b92505081905550816002600083815260200190815260200160002060006101000a81548173ffffffffffffffffffffffffffffffffffffffff021916908373ffffffffffffffffffffffffffffffffffffffff160217905550808273ffffffffffffffffffffffffffffffffffffffff16600073ffffffffffffffffffffffffffffffffffffffff167fddf252ad1be2c89b69c2b068fc378daa952ba7f163c4a11628f55a4df523b3ef60405160405180910390a4620004ab600083836200066e60201b60201c565b5050565b6000620004dd8473ffffffffffffffffffffffffffffffffffffffff166200067360201b62000a681760201c565b156200065c578373ffffffffffffffffffffffffffffffffffffffff1663150b7a026200050f6200069660201b60201c565b8786866040518563ffffffff1660e01b815260040162000533949392919062000fc7565b602060405180830381600087803b1580156200054e57600080fd5b505af19250505080156200058257506040513d601f19601f820116820180604052508101906200057f919062001078565b60015b6200060b573d8060008114620005b5576040519150601f19603f3d011682016040523d82523d6000602084013e620005ba565b606091505b5060008151141562000603576040517f08c379a0000000000000000000000000000000000000000000000000000000008152600401620005fa9062000de5565b60405180910390fd5b805181602001fd5b63150b7a0260e01b7bffffffffffffffffffffffffffffffffffffffffffffffffffffffff1916817bffffffffffffffffffffffffffffffffffffffffffffffffffffffff19161491505062000661565b600190505b949350505050565b505050565b505050565b6000808273ffffffffffffffffffffffffffffffffffffffff163b119050919050565b600033905090565b828054620006ac90620010d9565b90600052602060002090601f016020900481019282620006d057600085556200071c565b82601f10620006eb57805160ff19168380011785556200071c565b828001600101855582156200071c579182015b828111156200071b578251825591602001919060010190620006fe565b5b5090506200072b91906200072f565b5090565b5b808211156200074a57600081600090555060010162000730565b5090565b6000604051905090565b600080fd5b600080fd5b600080fd5b600080fd5b6000601f19601f8301169050919050565b7f4e487b7100000000000000000000000000000000000000000000000000000000600052604160045260246000fd5b620007b7826200076c565b810181811067ffffffffffffffff82111715620007d957620007d86200077d565b5b80604052505050565b6000620007ee6200074e565b9050620007fc8282620007ac565b919050565b600067ffffffffffffffff8211156200081f576200081e6200077d565b5b6200082a826200076c565b9050602081019050919050565b60005b83811015620008575780820151818401526020810190506200083a565b8381111562000867576000848401525b50505050565b6000620008846200087e8462000801565b620007e2565b905082815260208101848484011115620008a357620008a262000767565b5b620008b084828562000837565b509392505050565b600082601f830112620008d057620008cf62000762565b5b8151620008e28482602086016200086d565b91505092915050565b600067ffffffffffffffff8211156200090957620009086200077d565b5b602082029050602081019050919050565b600080fd5b600073ffffffffffffffffffffffffffffffffffffffff82169050919050565b60006200094c826200091f565b9050919050565b6200095e816200093f565b81146200096a57600080fd5b50565b6000815190506200097e8162000953565b92915050565b60006200099b6200099584620008eb565b620007e2565b90508083825260208201905060208402830185811115620009c157620009c06200091a565b5b835b81811015620009ee5780620009d988826200096d565b845260208401935050602081019050620009c3565b5050509392505050565b600082601f83011262000a105762000a0f62000762565b5b815162000a2284826020860162000984565b91505092915050565b600067ffffffffffffffff82111562000a495762000a486200077d565b5b602082029050602081019050919050565b600062000a7162000a6b8462000a2b565b620007e2565b9050808382526020820190506020840283018581111562000a975762000a966200091a565b5b835b8181101562000ae557805167ffffffffffffffff81111562000ac05762000abf62000762565b5b80860162000acf8982620008b8565b8552602085019450505060208101905062000a99565b5050509392505050565b600082601f83011262000b075762000b0662000762565b5b815162000b1984826020860162000a5a565b91505092915050565b6000806000806080858703121562000b3f5762000b3e62000758565b5b600085015167ffffffffffffffff81111562000b605762000b5f6200075d565b5b62000b6e87828801620008b8565b945050602085015167ffffffffffffffff81111562000b925762000b916200075d565b5b62000ba087828801620008b8565b935050604085015167ffffffffffffffff81111562000bc45762000bc36200075d565b5b62000bd287828801620009f8565b925050606085015167ffffffffffffffff81111562000bf65762000bf56200075d565b5b62000c048782880162000aef565b91505092959194509250565b7f4e487b7100000000000000000000000000000000000000000000000000000000600052603260045260246000fd5b7f4e487b7100000000000000000000000000000000000000000000000000000000600052601160045260246000fd5b6000819050919050565b600062000c858262000c6e565b91507fffffffffffffffffffffffffffffffffffffffffffffffffffffffffffffffff82141562000cbb5762000cba62000c3f565b5b600182019050919050565b600082825260208201905092915050565b7f45524337323155524953746f726167653a2055524920736574206f66206e6f6e60008201527f6578697374656e7420746f6b656e000000000000000000000000000000000000602082015250565b600062000d35602e8362000cc6565b915062000d428262000cd7565b604082019050919050565b6000602082019050818103600083015262000d688162000d26565b9050919050565b7f4552433732313a207472616e7366657220746f206e6f6e20455243373231526560008201527f63656976657220696d706c656d656e7465720000000000000000000000000000602082015250565b600062000dcd60328362000cc6565b915062000dda8262000d6f565b604082019050919050565b6000602082019050818103600083015262000e008162000dbe565b9050919050565b7f4552433732313a206d696e7420746f20746865207a65726f2061646472657373600082015250565b600062000e3f60208362000cc6565b915062000e4c8262000e07565b602082019050919050565b6000602082019050818103600083015262000e728162000e30565b9050919050565b7f4552433732313a20746f6b656e20616c7265616479206d696e74656400000000600082015250565b600062000eb1601c8362000cc6565b915062000ebe8262000e79565b602082019050919050565b6000602082019050818103600083015262000ee48162000ea2565b9050919050565b600062000ef88262000c6e565b915062000f058362000c6e565b9250827fffffffffffffffffffffffffffffffffffffffffffffffffffffffffffffffff0382111562000f3d5762000f3c62000c3f565b5b828201905092915050565b62000f53816200093f565b82525050565b62000f648162000c6e565b82525050565b600081519050919050565b600082825260208201905092915050565b600062000f938262000f6a565b62000f9f818562000f75565b935062000fb181856020860162000837565b62000fbc816200076c565b840191505092915050565b600060808201905062000fde600083018762000f48565b62000fed602083018662000f48565b62000ffc604083018562000f59565b818103606083015262001010818462000f86565b905095945050505050565b60007fffffffff0000000000000000000000000000000000000000000000000000000082169050919050565b62001052816200101b565b81146200105e57600080fd5b50565b600081519050620010728162001047565b92915050565b60006020828403121562001091576200109062000758565b5b6000620010a18482850162001061565b91505092915050565b7f4e487b7100000000000000000000000000000000000000000000000000000000600052602260045260246000fd5b60006002820490506001821680620010f257607f821691505b60208210811415620011095762001108620010aa565b5b50919050565b6122e8806200111f6000396000f3fe608060405234801561001057600080fd5b50600436106100ea5760003560e01c80636352211e1161008c578063a22cb46511610066578063a22cb4651461025d578063b88d4fde14610279578063c87b56dd14610295578063e985e9c5146102c5576100ea565b80636352211e146101df57806370a082311461020f57806395d89b411461023f576100ea565b8063095ea7b3116100c8578063095ea7b31461016d57806323b872dd1461018957806342842e0e146101a557806361bc221a146101c1576100ea565b806301ffc9a7146100ef57806306fdde031461011f578063081812fc1461013d575b600080fd5b6101096004803603810190610104919061151f565b6102f5565b6040516101169190611567565b60405180910390f35b6101276103d7565b604051610134919061161b565b60405180910390f35b61015760048036038101906101529190611673565b610469565b60405161016491906116e1565b60405180910390f35b61018760048036038101906101829190611728565b6104af565b005b6101a3600480360381019061019e9190611768565b6105c7565b005b6101bf60048036038101906101ba9190611768565b610627565b005b6101c9610647565b6040516101d691906117ca565b60405180910390f35b6101f960048036038101906101f49190611673565b61064d565b60405161020691906116e1565b60405180910390f35b610229600480360381019061022491906117e5565b6106ff565b60405161023691906117ca565b60405180910390f35b6102476107b7565b604051610254919061161b565b60405180910390f35b6102776004803603810190610272919061183e565b610849565b005b610293600480360381019061028e91906119b3565b61085f565b005b6102af60048036038101906102aa9190611673565b6108c1565b6040516102bc919061161b565b60405180910390f35b6102df60048036038101906102da9190611a36565b6109d4565b6040516102ec9190611567565b60405180910390f35b60007f80ac58cd000000000000000000000000000000000000000000000000000000007bffffffffffffffffffffffffffffffffffffffffffffffffffffffff1916827bffffffffffffffffffffffffffffffffffffffffffffffffffffffff191614806103c057507f5b5e139f000000000000000000000000000000000000000000000000000000007bffffffffffffffffffffffffffffffffffffffffffffffffffffffff1916827bffffffffffffffffffffffffffffffffffffffffffffffffffffffff1916145b806103d057506103cf82610a8b565b5b9050919050565b6060600080546103e690611aa5565b80601f016020809104026020016040519081016040528092919081815260200182805461041290611aa5565b801561045f5780601f106104345761010080835404028352916020019161045f565b820191906000526020600020905b81548152906001019060200180831161044257829003601f168201915b5050505050905090565b600061047482610af5565b6004600083815260200190815260200160002060009054906101000a900473ffffffffffffffffffffffffffffffffffffffff169050919050565b60006104ba8261064d565b90508073ffffffffffffffffffffffffffffffffffffffff168373ffffffffffffffffffffffffffffffffffffffff16141561052b576040517f08c379a000000000000000000000000000000000000000000000000000000000815260040161052290611b49565b60405180910390fd5b8073ffffffffffffffffffffffffffffffffffffffff1661054a610b40565b73ffffffffffffffffffffffffffffffffffffffff161480610579575061057881610573610b40565b6109d4565b5b6105b8576040517f08c379a00000000000000000000000000000000000000000000000000000000081526004016105af90611bdb565b60405180910390fd5b6105c28383610b48565b505050565b6105d86105d2610b40565b82610c01565b610617576040517f08c379a000000000000000000000000000000000000000000000000000000000815260040161060e90611c6d565b60405180910390fd5b610622838383610c96565b505050565b6106428383836040518060200160405280600081525061085f565b505050565b60075481565b6000806002600084815260200190815260200160002060009054906101000a900473ffffffffffffffffffffffffffffffffffffffff169050600073ffffffffffffffffffffffffffffffffffffffff168173ffffffffffffffffffffffffffffffffffffffff1614156106f6576040517f08c379a00000000000000000000000000000000000000000000000000000000081526004016106ed90611cd9565b60405180910390fd5b80915050919050565b60008073ffffffffffffffffffffffffffffffffffffffff168273ffffffffffffffffffffffffffffffffffffffff161415610770576040517f08c379a000000000000000000000000000000000000000000000000000000000815260040161076790611d6b565b60405180910390fd5b600360008373ffffffffffffffffffffffffffffffffffffffff1673ffffffffffffffffffffffffffffffffffffffff168152602001908152602001600020549050919050565b6060600180546107c690611aa5565b80601f01602080910402602001604051908101604052809291908181526020018280546107f290611aa5565b801561083f5780601f106108145761010080835404028352916020019161083f565b820191906000526020600020905b81548152906001019060200180831161082257829003601f168201915b5050505050905090565b61085b610854610b40565b8383610efd565b5050565b61087061086a610b40565b83610c01565b6108af576040517f08c379a00000000000000000000000000000000000000000000000000000000081526004016108a690611c6d565b60405180910390fd5b6108bb8484848461106a565b50505050565b60606108cc82610af5565b60006006600084815260200190815260200160002080546108ec90611aa5565b80601f016020809104026020016040519081016040528092919081815260200182805461091890611aa5565b80156109655780601f1061093a57610100808354040283529160200191610965565b820191906000526020600020905b81548152906001019060200180831161094857829003601f168201915b5050505050905060006109766110c6565b905060008151141561098c5781925050506109cf565b6000825111156109c15780826040516020016109a9929190611dc7565b604051602081830303815290604052925050506109cf565b6109ca846110dd565b925050505b919050565b6000600560008473ffffffffffffffffffffffffffffffffffffffff1673ffffffffffffffffffffffffffffffffffffffff16815260200190815260200160002060008373ffffffffffffffffffffffffffffffffffffffff1673ffffffffffffffffffffffffffffffffffffffff16815260200190815260200160002060009054906101000a900460ff16905092915050565b6000808273ffffffffffffffffffffffffffffffffffffffff163b119050919050565b60007f01ffc9a7000000000000000000000000000000000000000000000000000000007bffffffffffffffffffffffffffffffffffffffffffffffffffffffff1916827bffffffffffffffffffffffffffffffffffffffffffffffffffffffff1916149050919050565b610afe81611145565b610b3d576040517f08c379a0000000000000000000000000000000000000000000000000000000008152600401610b3490611cd9565b60405180910390fd5b50565b600033905090565b816004600083815260200190815260200160002060006101000a81548173ffffffffffffffffffffffffffffffffffffffff021916908373ffffffffffffffffffffffffffffffffffffffff160217905550808273ffffffffffffffffffffffffffffffffffffffff16610bbb8361064d565b73ffffffffffffffffffffffffffffffffffffffff167f8c5be1e5ebec7d5bd14f71427d1e84f3dd0314c0f7b2291e5b200ac8c7c3b92560405160405180910390a45050565b600080610c0d8361064d565b90508073ffffffffffffffffffffffffffffffffffffffff168473ffffffffffffffffffffffffffffffffffffffff161480610c4f5750610c4e81856109d4565b5b80610c8d57508373ffffffffffffffffffffffffffffffffffffffff16610c7584610469565b73ffffffffffffffffffffffffffffffffffffffff16145b91505092915050565b8273ffffffffffffffffffffffffffffffffffffffff16610cb68261064d565b73ffffffffffffffffffffffffffffffffffffffff1614610d0c576040517f08c379a0000000000000000000000000000000000000000000000000000000008152600401610d0390611e5d565b60405180910390fd5b600073ffffffffffffffffffffffffffffffffffffffff168273ffffffffffffffffffffffffffffffffffffffff161415610d7c576040517f08c379a0000000000000000000000000000000000000000000000000000000008152600401610d7390611eef565b60405180910390fd5b610d878383836111b1565b610d92600082610b48565b6001600360008573ffffffffffffffffffffffffffffffffffffffff1673ffffffffffffffffffffffffffffffffffffffff1681526020019081526020016000206000828254610de29190611f3e565b925050819055506001600360008473ffffffffffffffffffffffffffffffffffffffff1673ffffffffffffffffffffffffffffffffffffffff1681526020019081526020016000206000828254610e399190611f72565b92505081905550816002600083815260200190815260200160002060006101000a81548173ffffffffffffffffffffffffffffffffffffffff021916908373ffffffffffffffffffffffffffffffffffffffff160217905550808273ffffffffffffffffffffffffffffffffffffffff168473ffffffffffffffffffffffffffffffffffffffff167fddf252ad1be2c89b69c2b068fc378daa952ba7f163c4a11628f55a4df523b3ef60405160405180910390a4610ef88383836111b6565b505050565b8173ffffffffffffffffffffffffffffffffffffffff168373ffffffffffffffffffffffffffffffffffffffff161415610f6c576040517f08c379a0000000000000000000000000000000000000000000000000000000008152600401610f6390612014565b60405180910390fd5b80600560008573ffffffffffffffffffffffffffffffffffffffff1673ffffffffffffffffffffffffffffffffffffffff16815260200190815260200160002060008473ffffffffffffffffffffffffffffffffffffffff1673ffffffffffffffffffffffffffffffffffffffff16815260200190815260200160002060006101000a81548160ff0219169083151502179055508173ffffffffffffffffffffffffffffffffffffffff168373ffffffffffffffffffffffffffffffffffffffff167f17307eab39ab6107e8899845ad3d59bd9653f200f220920489ca2b5937696c318360405161105d9190611567565b60405180910390a3505050565b611075848484610c96565b611081848484846111bb565b6110c0576040517f08c379a00000000000000000000000000000000000000000000000000000000081526004016110b7906120a6565b60405180910390fd5b50505050565b606060405180602001604052806000815250905090565b60606110e882610af5565b60006110f26110c6565b90506000815111611112576040518060200160405280600081525061113d565b8061111c84611352565b60405160200161112d929190611dc7565b6040516020818303038152906040525b915050919050565b60008073ffffffffffffffffffffffffffffffffffffffff166002600084815260200190815260200160002060009054906101000a900473ffffffffffffffffffffffffffffffffffffffff1673ffffffffffffffffffffffffffffffffffffffff1614159050919050565b505050565b505050565b60006111dc8473ffffffffffffffffffffffffffffffffffffffff16610a68565b15611345578373ffffffffffffffffffffffffffffffffffffffff1663150b7a02611205610b40565b8786866040518563ffffffff1660e01b8152600401611227949392919061211b565b602060405180830381600087803b15801561124157600080fd5b505af192505050801561127257506040513d601f19601f8201168201806040525081019061126f919061217c565b60015b6112f5573d80600081146112a2576040519150601f19603f3d011682016040523d82523d6000602084013e6112a7565b606091505b506000815114156112ed576040517f08c379a00000000000000000000000000000000000000000000000000000000081526004016112e4906120a6565b60405180910390fd5b805181602001fd5b63150b7a0260e01b7bffffffffffffffffffffffffffffffffffffffffffffffffffffffff1916817bffffffffffffffffffffffffffffffffffffffffffffffffffffffff19161491505061134a565b600190505b949350505050565b6060600082141561139a576040518060400160405280600181526020017f300000000000000000000000000000000000000000000000000000000000000081525090506114ae565b600082905060005b600082146113cc5780806113b5906121a9565b915050600a826113c59190612221565b91506113a2565b60008167ffffffffffffffff8111156113e8576113e7611888565b5b6040519080825280601f01601f19166020018201604052801561141a5781602001600182028036833780820191505090505b5090505b600085146114a7576001826114339190611f3e565b9150600a856114429190612252565b603061144e9190611f72565b60f81b81838151811061146457611463612283565b5b60200101907effffffffffffffffffffffffffffffffffffffffffffffffffffffffffffff1916908160001a905350600a856114a09190612221565b945061141e565b8093505050505b919050565b6000604051905090565b600080fd5b600080fd5b60007fffffffff0000000000000000000000000000000000000000000000000000000082169050919050565b6114fc816114c7565b811461150757600080fd5b50565b600081359050611519816114f3565b92915050565b600060208284031215611535576115346114bd565b5b60006115438482850161150a565b91505092915050565b60008115159050919050565b6115618161154c565b82525050565b600060208201905061157c6000830184611558565b92915050565b600081519050919050565b600082825260208201905092915050565b60005b838110156115bc5780820151818401526020810190506115a1565b838111156115cb576000848401525b50505050565b6000601f19601f8301169050919050565b60006115ed82611582565b6115f7818561158d565b935061160781856020860161159e565b611610816115d1565b840191505092915050565b6000602082019050818103600083015261163581846115e2565b905092915050565b6000819050919050565b6116508161163d565b811461165b57600080fd5b50565b60008135905061166d81611647565b92915050565b600060208284031215611689576116886114bd565b5b60006116978482850161165e565b91505092915050565b600073ffffffffffffffffffffffffffffffffffffffff82169050919050565b60006116cb826116a0565b9050919050565b6116db816116c0565b82525050565b60006020820190506116f660008301846116d2565b92915050565b611705816116c0565b811461171057600080fd5b50565b600081359050611722816116fc565b92915050565b6000806040838503121561173f5761173e6114bd565b5b600061174d85828601611713565b925050602061175e8582860161165e565b9150509250929050565b600080600060608486031215611781576117806114bd565b5b600061178f86828701611713565b93505060206117a086828701611713565b92505060406117b18682870161165e565b9150509250925092565b6117c48161163d565b82525050565b60006020820190506117df60008301846117bb565b92915050565b6000602082840312156117fb576117fa6114bd565b5b600061180984828501611713565b91505092915050565b61181b8161154c565b811461182657600080fd5b50565b60008135905061183881611812565b92915050565b60008060408385031215611855576118546114bd565b5b600061186385828601611713565b925050602061187485828601611829565b9150509250929050565b600080fd5b600080fd5b7f4e487b7100000000000000000000000000000000000000000000000000000000600052604160045260246000fd5b6118c0826115d1565b810181811067ffffffffffffffff821117156118df576118de611888565b5b80604052505050565b60006118f26114b3565b90506118fe82826118b7565b919050565b600067ffffffffffffffff82111561191e5761191d611888565b5b611927826115d1565b9050602081019050919050565b82818337600083830152505050565b600061195661195184611903565b6118e8565b90508281526020810184848401111561197257611971611883565b5b61197d848285611934565b509392505050565b600082601f83011261199a5761199961187e565b5b81356119aa848260208601611943565b91505092915050565b600080600080608085870312156119cd576119cc6114bd565b5b60006119db87828801611713565b94505060206119ec87828801611713565b93505060406119fd8782880161165e565b925050606085013567ffffffffffffffff811115611a1e57611a1d6114c2565b5b611a2a87828801611985565b91505092959194509250565b60008060408385031215611a4d57611a4c6114bd565b5b6000611a5b85828601611713565b9250506020611a6c85828601611713565b9150509250929050565b7f4e487b7100000000000000000000000000000000000000000000000000000000600052602260045260246000fd5b60006002820490506001821680611abd57607f821691505b60208210811415611ad157611ad0611a76565b5b50919050565b7f4552433732313a20617070726f76616c20746f2063757272656e74206f776e6560008201527f7200000000000000000000000000000000000000000000000000000000000000602082015250565b6000611b3360218361158d565b9150611b3e82611ad7565b604082019050919050565b60006020820190508181036000830152611b6281611b26565b9050919050565b7f4552433732313a20617070726f76652063616c6c6572206973206e6f7420746f60008201527f6b656e206f776e6572206e6f7220617070726f76656420666f7220616c6c0000602082015250565b6000611bc5603e8361158d565b9150611bd082611b69565b604082019050919050565b60006020820190508181036000830152611bf481611bb8565b9050919050565b7f4552433732313a2063616c6c6572206973206e6f7420746f6b656e206f776e6560008201527f72206e6f7220617070726f766564000000000000000000000000000000000000602082015250565b6000611c57602e8361158d565b9150611c6282611bfb565b604082019050919050565b60006020820190508181036000830152611c8681611c4a565b9050919050565b7f4552433732313a20696e76616c696420746f6b656e2049440000000000000000600082015250565b6000611cc360188361158d565b9150611cce82611c8d565b602082019050919050565b60006020820190508181036000830152611cf281611cb6565b9050919050565b7f4552433732313a2061646472657373207a65726f206973206e6f74206120766160008201527f6c6964206f776e65720000000000000000000000000000000000000000000000602082015250565b6000611d5560298361158d565b9150611d6082611cf9565b604082019050919050565b60006020820190508181036000830152611d8481611d48565b9050919050565b600081905092915050565b6000611da182611582565b611dab8185611d8b565b9350611dbb81856020860161159e565b80840191505092915050565b6000611dd38285611d96565b9150611ddf8284611d96565b91508190509392505050565b7f4552433732313a207472616e736665722066726f6d20696e636f72726563742060008201527f6f776e6572000000000000000000000000000000000000000000000000000000602082015250565b6000611e4760258361158d565b9150611e5282611deb565b604082019050919050565b60006020820190508181036000830152611e7681611e3a565b9050919050565b7f4552433732313a207472616e7366657220746f20746865207a65726f2061646460008201527f7265737300000000000000000000000000000000000000000000000000000000602082015250565b6000611ed960248361158d565b9150611ee482611e7d565b604082019050919050565b60006020820190508181036000830152611f0881611ecc565b9050919050565b7f4e487b7100000000000000000000000000000000000000000000000000000000600052601160045260246000fd5b6000611f498261163d565b9150611f548361163d565b925082821015611f6757611f66611f0f565b5b828203905092915050565b6000611f7d8261163d565b9150611f888361163d565b9250827fffffffffffffffffffffffffffffffffffffffffffffffffffffffffffffffff03821115611fbd57611fbc611f0f565b5b828201905092915050565b7f4552433732313a20617070726f766520746f2063616c6c657200000000000000600082015250565b6000611ffe60198361158d565b915061200982611fc8565b602082019050919050565b6000602082019050818103600083015261202d81611ff1565b9050919050565b7f4552433732313a207472616e7366657220746f206e6f6e20455243373231526560008201527f63656976657220696d706c656d656e7465720000000000000000000000000000602082015250565b600061209060328361158d565b915061209b82612034565b604082019050919050565b600060208201905081810360008301526120bf81612083565b9050919050565b600081519050919050565b600082825260208201905092915050565b60006120ed826120c6565b6120f781856120d1565b935061210781856020860161159e565b612110816115d1565b840191505092915050565b600060808201905061213060008301876116d2565b61213d60208301866116d2565b61214a60408301856117bb565b818103606083015261215c81846120e2565b905095945050505050565b600081519050612176816114f3565b92915050565b600060208284031215612192576121916114bd565b5b60006121a084828501612167565b91505092915050565b60006121b48261163d565b91507fffffffffffffffffffffffffffffffffffffffffffffffffffffffffffffffff8214156121e7576121e6611f0f565b5b600182019050919050565b7f4e487b7100000000000000000000000000000000000000000000000000000000600052601260045260246000fd5b600061222c8261163d565b91506122378361163d565b925082612247576122466121f2565b5b828204905092915050565b600061225d8261163d565b91506122688361163d565b925082612278576122776121f2565b5b828206905092915050565b7f4e487b7100000000000000000000000000000000000000000000000000000000600052603260045260246000fdfea2646970667358221220fe23e18777214de4e2370251e0c07e3f47585a004c1aa73a21b4f50c5aa851f364736f6c63430008090033","abi":[{"inputs":[{"internalType":"string","name":"name","type":"string"},{"internalType":"string","name":"symbol","type":"string"},{"internalType":"address[]","name":"owners","type":"address[]"},{"internalType":"string[]","name":"data","type":"string[]"}],"stateMutability":"nonpayable","type":"constructor"},{"anonymous":false,"inputs":[{"indexed":true,"internalType":"address","name":"owner","type":"address"},{"indexed":true,"internalType":"address","name":"approved","type":"address"},{"indexed":true,"internalType":"uint256","name":"tokenId","type":"uint256"}],"name":"Approval","type":"event"},{"anonymous":false,"inputs":[{"indexed":true,"internalType":"address","name":"owner","type":"address"},{"indexed":true,"internalType":"address","name":"operator","type":"address"},{"indexed":false,"internalType":"bool","name":"approved","type":"bool"}],"name":"ApprovalForAll","type":"event"},{"anonymous":false,"inputs":[{"indexed":true,"internalType":"address","name":"from","type":"address"},{"indexed":true,"internalType":"address","name":"to","type":"address"},{"indexed":true,"internalType":"uint256","name":"tokenId","type":"uint256"}],"name":"Transfer","type":"event"},{"inputs":[{"internalType":"address","name":"to","type":"address"},{"internalType":"uint256","name":"tokenId","type":"uint256"}],"name":"approve","outputs":[],"stateMutability":"nonpayable","type":"function"},{"inputs":[{"internalType":"address","name":"owner","type":"address"}],"name":"balanceOf","outputs":[{"internalType":"uint256","name":"","type":"uint256"}],"stateMutability":"view","type":"function"},{"inputs":[],"name":"counter","outputs":[{"internalType":"uint256","name":"","type":"uint256"}],"stateMutability":"view","type":"function"},{"inputs":[{"internalType":"uint256","name":"tokenId","type":"uint256"}],"name":"getApproved","outputs":[{"internalType":"address","name":"","type":"address"}],"stateMutability":"view","type":"function"},{"inputs":[{"internalType":"address","name":"owner","type":"address"},{"internalType":"address","name":"operator","type":"address"}],"name":"isApprovedForAll","outputs":[{"internalType":"bool","name":"","type":"bool"}],"stateMutability":"view","type":"function"},{"inputs":[],"name":"name","outputs":[{"internalType":"string","name":"","type":"string"}],"stateMutability":"view","type":"function"},{"inputs":[{"internalType":"uint256","name":"tokenId","type":"uint256"}],"name":"ownerOf","outputs":[{"internalType":"address","name":"","type":"address"}],"stateMutability":"view","type":"function"},{"inputs":[{"internalType":"address","name":"from","type":"address"},{"internalType":"address","name":"to","type":"address"},{"internalType":"uint256","name":"tokenId","type":"uint256"}],"name":"safeTransferFrom","outputs":[],"stateMutability":"nonpayable","type":"function"},{"inputs":[{"internalType":"address","name":"from","type":"address"},{"internalType":"address","name":"to","type":"address"},{"internalType":"uint256","name":"tokenId","type":"uint256"},{"internalType":"bytes","name":"data","type":"bytes"}],"name":"safeTransferFrom","outputs":[],"stateMutability":"nonpayable","type":"function"},{"inputs":[{"internalType":"address","name":"operator","type":"address"},{"internalType":"bool","name":"approved","type":"bool"}],"name":"setApprovalForAll","outputs":[],"stateMutability":"nonpayable","type":"function"},{"inputs":[{"internalType":"bytes4","name":"interfaceId","type":"bytes4"}],"name":"supportsInterface","outputs":[{"internalType":"bool","name":"","type":"bool"}],"stateMutability":"view","type":"function"},{"inputs":[],"name":"symbol","outputs":[{"internalType":"string","name":"","type":"string"}],"stateMutability":"view","type":"function"},{"inputs":[{"internalType":"uint256","name":"tokenId","type":"uint256"}],"name":"tokenURI","outputs":[{"internalType":"string","name":"","type":"string"}],"stateMutability":"view","type":"function"},{"inputs":[{"internalType":"address","name":"from","type":"address"},{"internalType":"address","name":"to","type":"address"},{"internalType":"uint256","name":"tokenId","type":"uint256"}],"name":"transferFrom","outputs":[],"stateMutability":"nonpayable","type":"function"}]}